{
  "contractName": "PurchaseHistory",
  "abi": [
    {
      "inputs": [
        {
          "internalType": "address",
          "name": "",
          "type": "address"
        },
        {
          "internalType": "uint256",
          "name": "",
          "type": "uint256"
        }
      ],
      "name": "purchaseState",
      "outputs": [
        {
          "internalType": "uint256",
          "name": "id",
          "type": "uint256"
        },
        {
          "internalType": "string",
          "name": "name",
          "type": "string"
        },
        {
          "internalType": "string",
          "name": "mobile",
          "type": "string"
        },
        {
          "internalType": "string",
          "name": "email",
          "type": "string"
        },
        {
          "internalType": "string",
          "name": "addresses",
          "type": "string"
        },
        {
          "internalType": "string",
          "name": "pname",
          "type": "string"
        },
        {
          "internalType": "string",
          "name": "image",
          "type": "string"
        },
        {
          "internalType": "string",
          "name": "status",
          "type": "string"
        },
        {
          "internalType": "uint256",
          "name": "qty",
          "type": "uint256"
        },
        {
          "internalType": "uint256",
          "name": "cost",
          "type": "uint256"
        },
        {
          "internalType": "uint256",
          "name": "total",
          "type": "uint256"
        },
        {
          "internalType": "string",
          "name": "point",
          "type": "string"
        },
        {
          "internalType": "string",
          "name": "stateOfPurchase",
          "type": "string"
        }
      ],
      "stateMutability": "view",
      "type": "function",
      "constant": true
    },
    {
      "inputs": [
        {
          "internalType": "string",
          "name": "_name",
          "type": "string"
        },
        {
          "internalType": "string",
          "name": "_mobile",
          "type": "string"
        },
        {
          "internalType": "string",
          "name": "_email",
          "type": "string"
        },
        {
          "internalType": "string",
          "name": "_addresses",
          "type": "string"
        },
        {
          "internalType": "string",
          "name": "_pname",
          "type": "string"
        },
        {
          "internalType": "string",
          "name": "_image",
          "type": "string"
        },
        {
          "internalType": "string",
          "name": "_status",
          "type": "string"
        },
        {
          "internalType": "uint256",
          "name": "_qty",
          "type": "uint256"
        },
        {
          "internalType": "uint256",
          "name": "_cost",
          "type": "uint256"
        },
        {
          "internalType": "uint256",
          "name": "_total",
          "type": "uint256"
        },
        {
          "internalType": "string",
          "name": "stateof",
          "type": "string"
        }
      ],
      "name": "setData",
      "outputs": [],
      "stateMutability": "nonpayable",
      "type": "function"
    },
    {
      "inputs": [],
      "name": "getDataHistory",
      "outputs": [
        {
          "internalType": "uint256[]",
          "name": "",
          "type": "uint256[]"
        },
        {
          "internalType": "string[]",
          "name": "",
          "type": "string[]"
        },
        {
          "internalType": "string[]",
          "name": "",
          "type": "string[]"
        },
        {
          "internalType": "string[]",
          "name": "",
          "type": "string[]"
        },
        {
          "internalType": "string[]",
          "name": "",
          "type": "string[]"
        },
        {
          "internalType": "string[]",
          "name": "",
          "type": "string[]"
        },
        {
          "internalType": "string[]",
          "name": "",
          "type": "string[]"
        },
        {
          "internalType": "string[]",
          "name": "",
          "type": "string[]"
        },
        {
          "internalType": "uint256[]",
          "name": "",
          "type": "uint256[]"
        },
        {
          "internalType": "uint256[]",
          "name": "",
          "type": "uint256[]"
        },
        {
          "internalType": "uint256[]",
          "name": "",
          "type": "uint256[]"
        },
        {
          "internalType": "string[]",
          "name": "",
          "type": "string[]"
        },
        {
          "internalType": "string[]",
          "name": "",
          "type": "string[]"
        }
      ],
      "stateMutability": "view",
      "type": "function",
      "constant": true
    },
    {
      "inputs": [
        {
          "internalType": "string",
          "name": "_status",
          "type": "string"
        },
        {
          "internalType": "uint256",
          "name": "_id",
          "type": "uint256"
        }
      ],
      "name": "updatePurchase",
      "outputs": [],
      "stateMutability": "nonpayable",
      "type": "function"
    },
    {
      "inputs": [
        {
          "internalType": "string",
          "name": "_status",
          "type": "string"
        },
        {
          "internalType": "uint256",
          "name": "_id",
          "type": "uint256"
        }
      ],
      "name": "cancelTheOrder",
      "outputs": [],
      "stateMutability": "nonpayable",
      "type": "function"
    },
    {
      "inputs": [
        {
          "internalType": "string",
          "name": "useremail",
          "type": "string"
        }
      ],
      "name": "getAccordingToUser",
      "outputs": [
        {
          "internalType": "uint256[]",
          "name": "",
          "type": "uint256[]"
        },
        {
          "internalType": "string[]",
          "name": "",
          "type": "string[]"
        },
        {
          "internalType": "string[]",
          "name": "",
          "type": "string[]"
        },
        {
          "internalType": "string[]",
          "name": "",
          "type": "string[]"
        },
        {
          "internalType": "string[]",
          "name": "",
          "type": "string[]"
        },
        {
          "internalType": "string[]",
          "name": "",
          "type": "string[]"
        },
        {
          "internalType": "string[]",
          "name": "",
          "type": "string[]"
        },
        {
          "internalType": "string[]",
          "name": "",
          "type": "string[]"
        },
        {
          "internalType": "uint256[]",
          "name": "",
          "type": "uint256[]"
        },
        {
          "internalType": "uint256[]",
          "name": "",
          "type": "uint256[]"
        },
        {
          "internalType": "uint256[]",
          "name": "",
          "type": "uint256[]"
        },
        {
          "internalType": "string[]",
          "name": "",
          "type": "string[]"
        },
        {
          "internalType": "string[]",
          "name": "",
          "type": "string[]"
        }
      ],
      "stateMutability": "view",
      "type": "function",
      "constant": true
    }
  ],
  "bytecode": "0x6080806040523461001657611dd5908161001c8239f35b600080fdfe6102c0604052600436101561001357600080fd5b7c01000000000000000000000000000000000000000000000000000000006000350480630486c35214610c23578063246c41c9146107a45780635c4e0d76146106195780639bb489ae1461047f578063e0b50cab146102db5763ec4e86f11461007b57600080fd5b346102d65760003660031901126102d6573360005260006020526040600020546100a481611d01565b6100ad82611d33565b906100b783611d33565b6100c084611d33565b6100c985611d33565b6100d286611d33565b6100db87611d33565b6100e488611d33565b6100ed89611d01565b916100f78a611d01565b936101018b611d01565b9561010b8c611d33565b976101158d611d33565b9960008e5b811061013657506040519d508d9c6101329c8e611aaa565b0390f35b808c8f8f90336000526000602052838060406000209061015591611bd3565b509283549161016391611d8c565b528361017160018401611c46565b61017b8284611d8c565b5261018591611d8c565b5061019260028201611c46565b61019c8487611d8c565b526101a78386611d8c565b506101b460038201611c46565b6101be8488611d8c565b526101c98387611d8c565b506101d660048201611c46565b6101e08489611d8c565b526101eb8388611d8c565b506101f860058201611c46565b610202848a611d8c565b5261020d8389611d8c565b5061021a60068201611c46565b610224848b611d8c565b5261022f838a611d8c565b5061023c60078201611c46565b610246848c611d8c565b52610251838b611d8c565b506008810154610261848d611d8c565b526009810154610271848e611d8c565b52600a810154610281848f611d8c565b528d83610290600b8401611c46565b61029a8284611d8c565b526102a491611d8c565b50600c016102b190611c46565b916102bb91611d8c565b526102c6818d611d8c565b506102d090611d7d565b8e61011a565b600080fd5b346102d6576102e936611ba1565b9033600052602060008152604060002054906000935b82851061030857005b336000526000825261031e856040600020611bd3565b508054821461033f575b509091929361033690611d7d565b939291906102ff565b600b019484519567ffffffffffffffff87116104665761035f8154611c08565b96601f97888111610425575b5084978082116001146103b557508061033694959697986000916103aa575b50600282810292600802900a6000190419161790555b9493929190610328565b90508801518961038a565b97601f1982169883600052866000209160005b8b811061040e5750918391600293600195610336999a9b9c9d106103f3575b505050020190556103a0565b8c0151908316600802840a60001904191690558a80806103e7565b90928860018192868e0151815501940191016103c8565b8260005285600020868a818186010483019382861061045d575b010401905b818110610451575061036b565b60008155600101610444565b9350829361043f565b60e060020a634e487b7102600052604160045260246000fd5b346102d65760403660031901126102d65760043573ffffffffffffffffffffffffffffffffffffffff81168091036102d65760243590600052600060205260406000209081548110156102d6576104d591611bd3565b5080546104e460018301611c46565b916104f160028201611c46565b906104fe60038201611c46565b61050a60048301611c46565b9061051760058401611c46565b9161052460068501611c46565b61053060078601611c46565b90600886015494600987015493600a88015495600b890161055090611c46565b98600c0161055d90611c46565b996040519c8d809d6101a09182918152602001528d0161057c91611a2c565b8c810360408e015261058d91611a2c565b8b810360608d015261059e91611a2c565b8a810360808c01526105af91611a2c565b89810360a08b01526105c091611a2c565b88810360c08a01526105d191611a2c565b87810360e08901526105e291611a2c565b9261010087015261012086015261014085015283810361016085015261060791611a2c565b82810361018084015261013291611a2c565b346102d65761062736611ba1565b9033600052602060008152604060002054906000935b82851061064657005b336000526000825261065c856040600020611bd3565b508054821461067d575b509091929361067490611d7d565b9392919061063d565b6007019484519567ffffffffffffffff87116104665761069d8154611c08565b96601f97888111610763575b5084978082116001146106f357508061067494959697986000916106e8575b50600282810292600802900a6000190419161790555b9493929190610666565b9050880151896106c8565b97601f1982169883600052866000209160005b8b811061074c5750918391600293600195610674999a9b9c9d10610731575b505050020190556106de565b8c0151908316600802840a60001904191690558a8080610725565b90928860018192868e015181550194019101610706565b8260005285600020868a818186010483019382861061079b575b010401905b81811061078f57506106a9565b60008155600101610782565b9350829361077d565b346102d65760203660031901126102d65760043567ffffffffffffffff81116102d6576107d590369060040161197e565b60a0523360005260006020526040600020546107f081611d01565b6101a0526107fd81611d33565b6101c05261080a81611d33565b60c05261081681611d33565b6102605261082381611d33565b60e05261082f81611d33565b6102805261083c81611d33565b6102405261084981611d33565b6101005261085681611d01565b6101205261086381611d01565b6101405261087081611d01565b6101605261087d81611d33565b6101805261088a81611d33565b6102205260006102a0525b806102a051106108df5760405180610132610220516101805161016051610140516101205161010051610240516102805160e0516102605160c0516101c0518d6101a05190611aaa565b3360005260006020526108f96102a0516040600020611bd3565b906102005250604051602081019061092d60208260a0515161092081878560a05101611a09565b810103808452018261195c565b519020604051600081600361020051015461094781611c08565b6101e05260018116908115610bfb5750600114610bae575b6109719103601f19810183528261195c565b6020815191012014610993575b61098a6102a051611d7d565b6102a052610895565b61020051546109a86102a0516101a051611d8c565b526109b860016102005101611c46565b6109c86102a0516101c051611d8c565b526109d96102a0516101c051611d8c565b506109e960026102005101611c46565b6109f86102a05160c051611d8c565b52610a086102a05160c051611d8c565b50610a1860036102005101611c46565b610a286102a05161026051611d8c565b52610a396102a05161026051611d8c565b50610a4960046102005101611c46565b610a586102a05160e051611d8c565b52610a686102a05160e051611d8c565b50610a7860056102005101611c46565b610a886102a05161028051611d8c565b52610a996102a05161028051611d8c565b50610aa960066102005101611c46565b610ab96102a05161024051611d8c565b52610aca6102a05161024051611d8c565b50610ada60076102005101611c46565b610aea6102a05161010051611d8c565b52610afb6102a05161010051611d8c565b506008610200510154610b146102a05161012051611d8c565b526009610200510154610b2d6102a05161014051611d8c565b52600a610200510154610b466102a05161016051611d8c565b52610b56600b6102005101611c46565b610b666102a05161018051611d8c565b52610b776102a05161018051611d8c565b50610b87600c6102005101611c46565b610b976102a05161022051611d8c565b52610ba86102a05161022051611d8c565b5061097e565b505060036102005101600052602060002060805260005b6101e0518110610bdf57506101e05181016020018161095f565b6020906080515482828501015260016080510160805201610bc5565b9250505060ff191660208201526109718160206101e05115156101e05102820101915061095f565b346102d6576101603660031901126102d65760043567ffffffffffffffff81116102d657610c5590369060040161197e565b60243567ffffffffffffffff81116102d657610c7590369060040161197e565b9060443567ffffffffffffffff81116102d657610c9690369060040161197e565b60643567ffffffffffffffff81116102d657610cb690369060040161197e565b60843567ffffffffffffffff81116102d657610cd690369060040161197e565b60a43567ffffffffffffffff81116102d657610cf690369060040161197e565b9060c43567ffffffffffffffff81116102d657610d1790369060040161197e565b926101443567ffffffffffffffff81116102d657610d3990369060040161197e565b943360005260006020526040600020549760018901891161194357336000526000602052604060002097604051998a6101a081011067ffffffffffffffff6101a08d011117610466576001906101a08c01604052018a5260208a015260408901526060880152608087015260a086015260c085015260e084015260e435610100840152610104356101208401526101243561014084015260405180604081011067ffffffffffffffff6040830111176104665760408101604052600381527f4e6f740000000000000000000000000000000000000000000000000000000000602082015261016084015261018083015280546801000000000000000081101561046657610e4b91600182018155611bd3565b61192a5781518155602082015180519067ffffffffffffffff8211610466578190610e796001850154611c08565b601f81116118d7575b50602090601f831160011461186357600092611858575b5050816002029160080260020a6000190419161760018201555b604082015180519067ffffffffffffffff8211610466578190610ed96002850154611c08565b601f8111611805575b50602090601f831160011461179157600092611786575b5050816002029160080260020a6000190419161760028201555b606082015180519067ffffffffffffffff8211610466578190610f396003850154611c08565b601f8111611733575b50602090601f83116001146116bf576000926116b4575b5050816002029160080260020a6000190419161760038201555b608082015180519067ffffffffffffffff8211610466578190610f996004850154611c08565b601f8111611661575b50602090601f83116001146115ed576000926115e2575b5050816002029160080260020a6000190419161760048201555b60a082015180519067ffffffffffffffff8211610466578190610ff96005850154611c08565b601f811161158f575b50602090601f831160011461151b57600092611510575b5050816002029160080260020a6000190419161760058201555b60c082015180519067ffffffffffffffff82116104665781906110596006850154611c08565b601f81116114bd575b50602090601f83116001146114495760009261143e575b5050816002029160080260020a6000190419161760068201555b60e082015180519067ffffffffffffffff82116104665781906110b96007850154611c08565b601f81116113eb575b50602090601f83116001146113775760009261136c575b5050816002029160080260020a6000190419161760078201555b61010082015160088201556101208201516009820155610140820151600a82015561016082015180519067ffffffffffffffff821161046657611139600b840154611c08565b601f8111611320575b50602090601f83116001146112a95791806101809492600c9460009261129e575b5050816002029160080260020a60001904191617600b8201555b0191015180519067ffffffffffffffff821161046657819061119f8454611c08565b601f811161124b575b50602090601f83116001146111e5576000926111da575b5050816002029160080260020a600019041916179055600080f35b0151905083806111bf565b6000858152602081209350601f198516905b81811061123357509160029391856001969410611218575b50505002019055005b01516008601f841602840a600019041916905584808061120f565b929360206001819287860151815501950193016111f7565b9091508360005260206000206020601f85010481019160208510611294575b906020601f86959493010401905b81811061128557506111a8565b60008155849350600101611278565b909150819061126a565b015190508680611163565b90601f19831691600b850160005260206000209260005b818110611308575093610180959360019360029383600c98106112ed575b5050500201600b82015561117d565b01516008601f841602840a60001904191690558780806112de565b929360206001819287860151815501950193016112c0565b600b840160005260206000206020601f85010481019160208510611362575b601f602091010401905b8181106113565750611142565b60008155600101611349565b909150819061133f565b0151905084806110d9565b91506007840160005260206000209160005b601f19851681106113d35750918391600293600195601f198116106113b8575b505050020160078201556110f3565b01516008601f841602840a60001904191690558580806113a9565b91926020600181928685015181550194019201611389565b9091506007840160005260206000206020601f850104810160208510611437575b90849392915b6020601f840104820181106114285750506110c2565b60008155859450600101611412565b508061140c565b015190508480611079565b91506006840160005260206000209160005b601f19851681106114a55750918391600293600195601f1981161061148a575b50505002016006820155611093565b01516008601f841602840a600019041916905585808061147b565b9192602060018192868501518155019401920161145b565b9091506006840160005260206000206020601f850104810160208510611509575b90849392915b6020601f840104820181106114fa575050611062565b600081558594506001016114e4565b50806114de565b015190508480611019565b91506005840160005260206000209160005b601f19851681106115775750918391600293600195601f1981161061155c575b50505002016005820155611033565b01516008601f841602840a600019041916905585808061154d565b9192602060018192868501518155019401920161152d565b9091506005840160005260206000206020601f8501048101602085106115db575b90849392915b6020601f840104820181106115cc575050611002565b600081558594506001016115b6565b50806115b0565b015190508480610fb9565b91506004840160005260206000209160005b601f19851681106116495750918391600293600195601f1981161061162e575b50505002016004820155610fd3565b01516008601f841602840a600019041916905585808061161f565b919260206001819286850151815501940192016115ff565b9091506004840160005260206000206020601f8501048101602085106116ad575b90849392915b6020601f8401048201811061169e575050610fa2565b60008155859450600101611688565b5080611682565b015190508480610f59565b91506003840160005260206000209160005b601f198516811061171b5750918391600293600195601f19811610611700575b50505002016003820155610f73565b01516008601f841602840a60001904191690558580806116f1565b919260206001819286850151815501940192016116d1565b9091506003840160005260206000206020601f85010481016020851061177f575b90849392915b6020601f84010482018110611770575050610f42565b6000815585945060010161175a565b5080611754565b015190508480610ef9565b91506002840160005260206000209160005b601f19851681106117ed5750918391600293600195601f198116106117d2575b50505002016002820155610f13565b01516008601f841602840a60001904191690558580806117c3565b919260206001819286850151815501940192016117a3565b9091506002840160005260206000206020601f850104810160208510611851575b90849392915b6020601f84010482018110611842575050610ee2565b6000815585945060010161182c565b5080611826565b015190508480610e99565b91506001840160005260206000209160005b601f19851681106118bf5750918391600293600195601f198116106118a4575b50505002016001820155610eb3565b01516008601f841602840a6000190419169055858080611895565b91926020600181928685015181550194019201611875565b9091506001840160005260206000206020601f850104810160208510611923575b90849392915b6020601f84010482018110611914575050610e82565b600081558594506001016118fe565b50806118f8565b60e060020a634e487b7102600052600060045260246000fd5b60e060020a634e487b7102600052601160045260246000fd5b90601f8019910116810190811067ffffffffffffffff82111761046657604052565b81601f820112156102d65780359067ffffffffffffffff821161046657604051926119b3601f8401601f19166020018561195c565b828452602083830101116102d657816000926020809301838601378301015290565b90815180825260208080930193019160005b8281106119f5575050505090565b8351855293810193928101926001016119e7565b60005b838110611a1c5750506000910152565b8181015183820152602001611a0c565b90602091611a4581518092818552858086019101611a09565b601f01601f1916010190565b80518083526020808202840181019392810192600090828101905b848310611a7c5750505050505090565b9091929394958480611a9a600193601f198682030187528a51611a2c565b9801930193019194939290611a6c565b9b98928c611b9e9e9c98611b37611b7199611b29611b8f9f9a611b1b611b809f989b611b0d611b4599611aff611b629f9d611af1611b539f8d6101a09081815201906119d5565b8c810360208e015290611a51565b908a820360408c0152611a51565b9088820360608a0152611a51565b908682036080880152611a51565b9084820360a0860152611a51565b9160c0818403910152611a51565b8c810360e08e015290611a51565b908a82036101008c01526119d5565b908882036101208a01526119d5565b908682036101408801526119d5565b90848203610160860152611a51565b91610180818403910152611a51565b90565b60406003198201126102d6576004359067ffffffffffffffff82116102d657611bcc9160040161197e565b9060243590565b8054821015611bef57600052600d602060002091020190600090565b60e060020a634e487b7102600052603260045260246000fd5b9060016002830492168015611c3c575b6020831014611c2357565b60e060020a634e487b7102600052602260045260246000fd5b91607f1691611c18565b90604051918260008254611c5981611c08565b908184526020946001918281169081600014611cc85750600114611c89575b505050611c879250038361195c565b565b600090815285812095935091905b818310611cb0575050611c879350820101388080611c78565b85548884018501529485019487945091830191611c97565b92505050611c8794925060ff19168284015215158102820101388080611c78565b67ffffffffffffffff81116104665760208091020190565b90611d0b82611ce9565b611d18604051918261195c565b8281528092611d29601f1991611ce9565b0190602036910137565b90611d3d82611ce9565b611d4a604051918261195c565b8281528092611d5b601f1991611ce9565b019060005b828110611d6c57505050565b806060602080938501015201611d60565b60001981146119435760010190565b8051821015611bef57602080920201019056fea2646970667358221220f25b56b19bfa5d76e8ac7dc58bc6e7da63a55c419068990713b5a153868d51a564736f6c63430008150033",
  "immutableReferences": {},
  "source": "// SPDX-License-Identifier: SEE LICENSE IN LICENSE\r\npragma solidity ^0.8.21;\r\n\r\ncontract PurchaseHistory {\r\n    struct Purchase {\r\n        uint256 id;\r\n        string name;\r\n        string mobile;\r\n        string email;\r\n        string addresses;\r\n        string pname;\r\n        string image;\r\n        string status;\r\n        uint256 qty;\r\n        uint256 cost;\r\n        uint256 total;\r\n        string point;\r\n        string stateOfPurchase;\r\n    }\r\n    mapping(address => Purchase[]) public purchaseState;\r\n\r\n    function setData(\r\n        string memory _name,\r\n        string memory _mobile,\r\n        string memory _email,\r\n        string memory _addresses,\r\n        string memory _pname,\r\n        string memory _image,\r\n        string memory _status,\r\n        uint256 _qty,\r\n        uint256 _cost,\r\n        uint256 _total,\r\n        string memory stateof\r\n    ) public {\r\n        uint256 index = purchaseState[msg.sender].length + 1;\r\n        purchaseState[msg.sender].push(\r\n            Purchase(\r\n                index,\r\n                _name,\r\n                _mobile,\r\n                _email,\r\n                _addresses,\r\n                _pname,\r\n                _image,\r\n                _status,\r\n                _qty,\r\n                _cost,\r\n                _total,\r\n                \"Not\",\r\n                stateof\r\n            )\r\n        );\r\n    }\r\n\r\n    function getDataHistory()\r\n        public\r\n        view\r\n        returns (\r\n            uint256[] memory,\r\n            string[] memory,\r\n            string[] memory,\r\n            string[] memory,\r\n            string[] memory,\r\n            string[] memory,\r\n            string[] memory,\r\n            string[] memory,\r\n            uint256[] memory,\r\n            uint256[] memory,\r\n            uint256[] memory,\r\n            string[] memory,\r\n            string[] memory\r\n        )\r\n    {\r\n        uint256 index = purchaseState[msg.sender].length;\r\n\r\n        uint256[] memory _id = new uint256[](index);\r\n        string[] memory _name = new string[](index);\r\n        string[] memory _mobile = new string[](index);\r\n        string[] memory _email = new string[](index);\r\n        string[] memory _addresses = new string[](index);\r\n        string[] memory _pname = new string[](index);\r\n        string[] memory _image = new string[](index);\r\n        string[] memory _status = new string[](index);\r\n        uint256[] memory _qty = new uint256[](index);\r\n        uint256[] memory _cost = new uint256[](index);\r\n        uint256[] memory _total = new uint256[](index);\r\n        string[] memory _point = new string[](index);\r\n        string[] memory _purchaseState = new string[](index);\r\n\r\n        for (uint256 i = 0; i < index; i++) {\r\n            Purchase storage p = purchaseState[msg.sender][i];\r\n            _id[i] = p.id;\r\n            _name[i] = p.name;\r\n            _mobile[i] = p.mobile;\r\n            _email[i] = p.email;\r\n            _addresses[i] = p.addresses;\r\n            _pname[i] = p.pname;\r\n            _image[i] = p.image;\r\n            _status[i] = p.status;\r\n            _qty[i] = p.qty;\r\n            _cost[i] = p.cost;\r\n            _total[i] = p.total;\r\n            _point[i] = p.point;\r\n            _purchaseState[i] = p.stateOfPurchase;\r\n        }\r\n        return (\r\n            _id,\r\n            _name,\r\n            _mobile,\r\n            _email,\r\n            _addresses,\r\n            _pname,\r\n            _image,\r\n            _status,\r\n            _qty,\r\n            _cost,\r\n            _total,\r\n            _point,_purchaseState\r\n        );\r\n    }\r\n\r\n    function updatePurchase(string memory _status, uint256 _id) public {\r\n        uint256 index = purchaseState[msg.sender].length;\r\n\r\n        for (uint256 id = 0; id < index; id++) {\r\n            Purchase storage pur = purchaseState[msg.sender][id];\r\n            if (_id == pur.id) {\r\n                pur.status = _status;\r\n            }\r\n        }\r\n    }\r\n    function cancelTheOrder(string memory _status, uint256 _id) public {\r\n        uint256 index = purchaseState[msg.sender].length;\r\n\r\n        for (uint256 id = 0; id < index; id++) {\r\n            Purchase storage pur = purchaseState[msg.sender][id];\r\n            if (_id == pur.id) {\r\n                pur.point = _status;\r\n            }\r\n        }\r\n    }\r\n\r\n    function getAccordingToUser(\r\n        string memory useremail\r\n    )\r\n        public\r\n        view\r\n        returns (\r\n            uint256[] memory,\r\n            string[] memory,\r\n            string[] memory,\r\n            string[] memory,\r\n            string[] memory,\r\n            string[] memory,\r\n            string[] memory,\r\n            string[] memory,\r\n            uint256[] memory,\r\n            uint256[] memory,\r\n            uint256[] memory,\r\n            string[] memory,string[] memory\r\n        )\r\n    {\r\n        uint256 index = purchaseState[msg.sender].length;\r\n\r\n        uint256[] memory _id = new uint256[](index);\r\n        string[] memory _name = new string[](index);\r\n        string[] memory _mobile = new string[](index);\r\n        string[] memory _email = new string[](index);\r\n        string[] memory _addresses = new string[](index);\r\n        string[] memory _pname = new string[](index);\r\n        string[] memory _image = new string[](index);\r\n        string[] memory _status = new string[](index);\r\n        uint256[] memory _qty = new uint256[](index);\r\n        uint256[] memory _cost = new uint256[](index);\r\n        uint256[] memory _total = new uint256[](index);\r\n        string[] memory _point = new string[](index);\r\n        string[] memory _purchaseState = new string[](index);\r\n\r\n        for (uint256 i = 0; i < index; i++) {\r\n            Purchase storage p = purchaseState[msg.sender][i];\r\n            if (\r\n                keccak256(abi.encodePacked(useremail)) ==\r\n                keccak256(abi.encodePacked(p.email))\r\n            ) {\r\n                _id[i] = p.id;\r\n                _name[i] = p.name;\r\n                _mobile[i] = p.mobile;\r\n                _email[i] = p.email;\r\n                _addresses[i] = p.addresses;\r\n                _pname[i] = p.pname;\r\n                _image[i] = p.image;\r\n                _status[i] = p.status;\r\n                _qty[i] = p.qty;\r\n                _cost[i] = p.cost;\r\n                _total[i] = p.total;\r\n                _point[i] = p.point;\r\n                _purchaseState[i]=p.stateOfPurchase;\r\n            }\r\n        }\r\n        return (\r\n            _id,\r\n            _name,\r\n            _mobile,\r\n            _email,\r\n            _addresses,\r\n            _pname,\r\n            _image,\r\n            _status,\r\n            _qty,\r\n            _cost,\r\n            _total,\r\n            _point,\r\n            _purchaseState\r\n        );\r\n    }\r\n}\r\n",
  "sourcePath": "C:\\Users\\thota\\OneDrive\\Desktop\\Project\\Blocks\\contracts\\PurchaseHistory.sol",
  "compiler": {
    "name": "solc",
    "version": "0.8.21+commit.d9974bed.Emscripten.clang"
  },
  "schemaVersion": "3.4.16",
  "updatedAt": "2025-05-14T12:22:00.214Z",
  "networkType": "ethereum",
  "devdoc": {
    "kind": "dev",
    "methods": {},
    "version": 1
  },
  "userdoc": {
    "kind": "user",
    "methods": {},
    "version": 1
  }
}